:020000040800F2
:10000000F0180020D5000008092000081F1900087A
:1000100000000000000000000000000000000000E0
:100020000000000000000000000000007F25000824
:10003000000000000000000051200008ED2500082D
:10004000E7000008E7000008E7000008E7000008F4
:10005000E7000008E7000008DD030008E7000008EB
:1000600000000000E7000008E7000008E7000008C3
:10007000E7000008E700000800000000E7000008B3
:1000800000000000E7000008000000000000000081
:10009000E700000800000000E7000008E700000893
:1000A000E7000008E7000008E7000008E700000894
:1000B000E7000008E7000008000000000000000062
:1000C0000348854600F08EF800480047392B0008A9
:1000D000F01800200448804704480047FEE7FEE788
:1000E000FEE7FEE7FEE7FEE761260008C100000824
:1000F00030B50B46014600202022012409E00D46C0
:10010000D5409D4205D31D469540491B2546954047
:1001100040191546521E002DF1DC30BDF0B51FB45C
:100120000646002082B005464024019100901BE065
:10013000019922460F46304600F042F8049A059B8A
:10014000801A994110D310461946224600F028F82B
:10015000361A8F410197224601200021009F00F0AE
:100160001FF838184D4100902046641E0028DFDC3F
:10017000019B00982946324607B0F0BDD2B201E09B
:100180000270401C491EFBD270470022F6E710B5F2
:1001900013460A4604461946FFF7F0FF204610BDF5
:1001A00010B5202A04DB0146203A9140002010BD02
:1001B000914020239C1A0346E3401943904010BD10
:1001C00010B5202A04DB0846203AD040002110BD9B
:1001D0000B46D340D0402024A21A91400843194630
:1001E00010BD0000064C0125064E05E0E36807CC73
:1001F0002B430C3C98471034B442F7D3FFF764FF0D
:10020000842B0008A42B000870B58D180478401CBE
:10021000A207920F01D10278401C231106D1037866
:10022000401C03E006780E70401C491C521EF9D198
:10023000002B15D002780C268A1A3440401C0C2C56
:1002400003D0A401121B9B1C08E004782402121B9B
:10025000401CF8E714780C70491C521C5B1EF9D541
:10026000A942D3D3002070BD014901200870704716
:10027000A413002010B50D4900240868002813D0ED
:10028000401E086010D10A48816B0122520591433B
:100290008163C021074800F05BFA074800F0E1FBEA
:1002A000002801D00724E443204610BDC0130020DD
:1002B00000100240000400507814002030B51E49A0
:1002C00087B01C4808601D4800240168491C016073
:1002D00001292CD1184800F0E0FB002827D1184D47
:1002E000E96A02200143E962E96A01400591C02000
:1002F00000901220012101900320029104910390AB
:100300006946104800F096FAA86B01214905084398
:10031000A863094801F0B4FC0725ED43002805D186
:100320000021054800F054FB002800D02C46204650
:1003300007B030BD0054004078140020C0130020E6
:10034000001002400004005010B50A460123014687
:1003500000241B03034800F0FDFB002800D0E41E2E
:10036000204610BD781400203EB5009201250A46B3
:100370002D0301930146002402950223084800F052
:1003800079FC002809D0064800F085FB042802D03B
:100390006524E44301E00324E44320463EBD00001D
:1003A000781400203EB5009201250A462D030193E2
:1003B0000146002402950223074800F005FD0028AD
:1003C00005D0054800F067FB042802D0241F204612
:1003D0003EBD6524E443FAE77814002010B50248D6
:1003E00000F09CF910BD0000E0130020F8B50029D2
:1003F00029D00246C821084600F0FEF82225F7243D
:1004000001F027FE0526360700228021304600F045
:10041000D2FA104F00220121384600F0CCFA2846CB
:1004200002F0B9F801221146384600F0C4FA20461D
:1004300002F0B1F801228021304600F0BCFA202001
:1004400000F0C0F8F8BDC821FF22084600F018F9F6
:10045000D4E700000004005010B500F04FF810BDC4
:1004600070B5122000F0AEF8FF25013505242407F1
:1004700002E00A2000F03DF92946204600F096FAF5
:100480000128F6D004211C4800F070F81A48022117
:10049000103800F06BF818480321801F00F066F850
:1004A00015480521001D00F061F8134802210E389F
:1004B00000F05CF8104802210C3800F057F80E48A4
:1004C00002210A3800F052F8202000F07BF80A4898
:1004D0000221083800F04AF807480321C01E00F046
:1004E00045F802E00A2000F004F92946204600F011
:1004F0005DFA0128F6D070BD9813002070B51A4D32
:1005000000220121284600F056FA05242407002283
:100510008021204600F04FFA01220221284600F0F7
:100520004AFAC82000F0E5F800220221284600F02F
:1005300042FA0A2000F0DDF801220221284600F0EC
:100540003AFAC82000F0D5F8FF25013502E00A206C
:1005500000F0CFF82946204600F028FA0128F6D00E
:10056000FFF77EFF70BD000000040050F8B50446A0
:100570000E46002505202A468021000700F01BFAC0
:100580000F4F00220121384600F015FA207802F0C2
:1005900002F8012211463846641C00F00CFA761E5F
:1005A00005E0207801F0F7FF6D1CEDB2641CB54248
:1005B000F7DB052001228021000700F0FCF9F8BDDF
:1005C0000004005070B50524054624070022802150
:1005D000204600F0F0F900220121064800F0EBF976
:1005E000284601F0D8FF01228021204600F0E3F9DF
:1005F00070BD000000040050F7B51446410705D057
:100600004107490F0822511A0818C0B2FF26C7082F
:10061000013605252D073146284600F0C7F9012887
:10062000F9D001F016FD052000228021000700F01E
:10063000C2F9124D00220121284600F0BCF9242005
:1006400001F0A9FF01221146284600F0B4F9002666
:1006500009E0002504E0207801F09DFF641C6D1C7A
:10066000BD42F8DB761C01988642F2D305200122B8
:100670008021000700F09FF9FEBD0000000400503B
:10068000F7B50E460024410705D04107490F08225F
:10069000511A0818C0B2C70801F0DBFC052000227F
:1006A0008021000700F087F9104D00220121284623
:1006B00000F081F9242001F06EFF01221146284646
:1006C00000F079F908E0002503E0029801F063FFEB
:1006D0006D1CBD42F9DB641CB442F4D30520012239
:1006E0008021000700F067F9FEBD00000004005003
:1006F000704770B5044600F065F90546601C00D0EF
:10070000641C00F05FF9401BA042FAD370BD0028C2
:1007100002D0016000207047012070470178CA06AE
:10072000D20E01219140054A53690B4204D0516118
:100730004068002800D000477047000000040140D6
:1007400003460020002901D0012070475A607047FD
:10075000F0B500235DE001249C4022460A4057D0BA
:1007600006685F000325BD402E43AC460660DD08E9
:10077000AD002D182E6AAE465D07EF0E0F25BD4069
:10078000AE4375462E6286686546AE438660456810
:10079000A5434560C4686546AC43C4609D081F4CD2
:1007A000AD002D19AF689C07260F0F24B440A44656
:1007B0003C4005273F07B84201D1002714E0184FFD
:1007C000B84201D101270FE0164FB84201D10227EC
:1007D0000AE0154FB84201D1032705E0134FB84294
:1007E00001D1052700E00627B740A74210D1AE6827
:1007F0006446A643AE600E4C256895432560656847
:1008000095436560A5689543A560E5689543E560F7
:100810005B1C0A46DA409ED1F0BD0000000001409A
:100820000004005000080050000C0050001C005054
:1008300000040140F8B500230124A2E027469F40B0
:100840003A4070D04D68022D01D0122D14D1DD0830
:10085000AD002D1800952D6A5E07AC46F50E0F26EB
:10086000AE46AE406546B543AC460E697546AE40F1
:1008700065462E43009D2E624D68012D05D0022D48
:1008800003D0112D01D0122D16D185680326AC4658
:100890005D00AE46AE406546B543AC46CE68754693
:1008A000AE4065462E43866046680D79BE43ED0630
:1008B000ED0F9D403543456006685F000325BD4050
:1008C000AE46AE430D79B446AE07B60FBE406546A0
:1008D0002E430660C6687546AE438D68BD403543FD
:1008E000C5604D68ED004BD5294D6E6B26436E6398
:1008F0009E08284DB6007519AC46AD689E07360FA8
:100900000F27B740BD4305273F07B84201D1002755
:1009100015E0214FB84201D1012710E01F4FB84226
:1009200002D102270BE02BE01D4FB84201D1032773
:1009300005E01C4FB84201D1052700E00627B7406B
:100940002F436546AF60184D2E684F689643FF03EE
:1009500000D516432E606E684F689643BF0300D5DE
:1009600016436E60AE684F689643FF0200D516438B
:10097000AE60EE684F689643BF0200D51643EE6046
:100980005B1C0A681546DD4000D057E7F8BD000043
:100990000010024000000140000400500008005018
:1009A000000C0050001C0050000401400069084089
:1009B00000D001207047002A01D081617047816218
:1009C000704700000148006870470000EC130020E9
:1009D00070B5024640325378202B1CD11378012B7E
:1009E00019D00123137024245470046825689D4392
:1009F0002560046825681E03B543256004682568E2
:100A00000D43256000680168194301602020507083
:100A10000020107070BD022070BD70B502464032DB
:100A20005378202B1BD11378012B18D0012414707C
:100A30002423537003681D68A5431D6005682B6857
:100A40000F263602B3430902194329600068016882
:100A500021430160202050700020107070BD0220E2
:100A600070BD70B5040014D02421204640300546E6
:100A7000417020680168490849000160204600F083
:100A800049FA0021616469702163A97029700846E0
:100A900070BD012070BD406C704740304078704799
:100AA00070B5040006D02546403568780026002839
:100AB00002D005E0012070BD2E70204600F02BFA18
:100AC00024206870206801684908490001600F21EE
:100AD0006068090688432168086121688A680120E6
:100AE000C00382438A60E1680129A16808D02122FD
:100AF0009202114322689160E168022902D005E068
:100B00000143F7E701212268C902516021684A6860
:100B10000F4B1A434A602168CA688243CA60616900
:100B200020690843A169090208432168C860216A55
:100B3000E0690843216808602068016801221143C8
:100B400001606664202068702663AE70002070BD6E
:100B500000800002FFB50446002083B025464035E2
:100B600001906A78202A74D122689269D2431204D3
:100B70007BD52A78012A78D001222A7024226A7033
:100B800060648F05BF0DE06801280BD00520C0020E
:100B9000012138188902884321684860FFF712FF55
:100BA00006460CE03248F3E70698401C07D0FFF7F2
:100BB00009FF811B0698814219D8002817D02168A7
:100BC000886989698006C00FC906C90F0843EBD040
:100BD00020688069069BC043C006009617D5002296
:100BE0002021204600F05AFF002830D107E02020C5
:100BF0006870616C014361640020287027E02168FF
:100C00002020C86168700020287007B0F0BD002265
:100C10002021204600F042FF002818D12168102032
:100C2000C86121682020C86101990598814214D1CA
:100C3000206841680122920311434160009600221E
:100C400020212046069B00F029FF002802D0012029
:100C5000DBE70AE021682020C8610198401C0146BA
:100C60000190059881428ED3C1E70220CDE70000B4
:100C700000200002FFB5054604464035687883B081
:100C8000202875D10C98002814D00D98002811D078
:100C9000287801286CD001202870FFF793FE0746C2
:100CA000012200901923D103204600F0F7FE00280E
:100CB00074D103E00120400260646FE0222068707C
:100CC0004020A870002666640C9860620D986085CC
:100CD00066630E980090019704A90EC9204600F0A3
:100CE00069FE002801D02E7058E0618D3448FF293C
:100CF00005D9FF22228501231B06009006E0618DA5
:100D000021850090208D0123C2B25B062046049904
:100D100000F0B0FE00970022042120460E9B00F058
:100D2000BDFE00283AD12068406A616A0870606A96
:100D3000401C6062208D401E81B22185608D401E66
:100D40006085608D00281FD000291DD100970022EA
:100D5000802120460E9B00F0A1FE00281ED1608D50
:100D6000FF2806D9FF22228501231B06009607E0F3
:100D700024E0608D20850096208D0123C2B25B06A1
:100D80002046049900F076FE608D0028C2D13A46D4
:100D900020460E9900F0A9FE002802D0012007B0DD
:100DA000F0BD20682021C16120684268054B1A40CF
:100DB00042606970AE702E700020F0E70220EEE70E
:100DC0000024008000E800FEFFB5054604464035DB
:100DD000687883B0202872D10C98002814D00D9820
:100DE000002811D02878012869D001202870FFF749
:100DF000E9FD0746012200901923D103204600F0A7
:100E00004DFE002871D103E00120400260646CE0D7
:100E1000212068704020A870002666640C986062EB
:100E20000D98608566630E980090019704A90EC91D
:100E3000204600F0EFFD002801D02E7055E0608DB7
:100E4000FF2805D9FF22228501231B06009606E014
:100E5000608D20850096208D0123C2B25B0620465E
:100E6000049900F007FE3A4620460E9900F063FE12
:100E700000283AD1606A216800788862606A401C64
:100E80006062608D401E6085208D401E80B220858E
:100E9000618D00291FD000281DD1009700228021DC
:100EA00020460E9B00F0FAFD00281ED1608DFF2821
:100EB00006D9FF22228501231B06009607E024E0C5
:100EC000608D20850096208D0123C2B25B062046EE
:100ED000049900F0CFFD608D0028C4D13A46204629
:100EE0000E9900F002FE002802D0012007B0F0BDEC
:100EF00020682021C16120684268054B1A40426089
:100F00006970AE702E700020F0E70220EEE700005E
:100F100000E800FE7047704702480168491C016004
:100F200070470000EC13002010B508480024016849
:100F3000402211430160204600F00AF8002801D049
:100F4000012401E000F01CF8204610BD0020024002
:100F500070B5054609487D210024C9000068FFF7E7
:100F6000C7F800F0F9FB002801D0012404E00022BA
:100F70002946501E00F01AF8204670BDF0130020DC
:100F80000448416B012211434163816B0204114308
:100F90008163704700100240C106C90E01208840DD
:100FA000014908607047000000E100E010B501F061
:100FB0002DF810BDF8B504460078544D800672D562
:100FC000524E0027403EB06BC00004D4B06BA90560
:100FD0000843B06301274E480168C90511D4016870
:100FE000821511430160FFF7EDFC009005E0FFF76B
:100FF000E9FC0099401A642837D845480068C005C4
:10100000F5D532680321090560680A400140914224
:1010100008D08103890F032904D13168890301D5E0
:101020000120F8BD2A69032109040A4022D00840A2
:1010300090421FD0207880061CD528692A698843F1
:101040000121C9040A432A612A698A432A61286165
:10105000C0050FD5FFF7B6FC009008E0FFF7B2FC23
:101060000099411A2B48814201D90320F8BD286913
:101070008005F3D561688803800F032805D13268A5
:101080000005824301400A433260286903226168F7
:101090001204114008432861002F04D0B16B0120D5
:1010A00000078143B1632078C00705D0E868A168D4
:1010B000800880000843E8602078800705D5E8684C
:1010C0000C218843E1680843E8602078400706D592
:1010D000E86803218902884321690843E860207891
:1010E000000706D5E86803210903884361690843BE
:1010F000E8602078000606D5E86803218904884363
:10110000A1690843E8600020F8BD000040100240DB
:101110000070004088130000F8B50E4605007DD031
:1011200053480068C007C00FB0420AD25048016857
:1011300049084900314301600068C007C00FB04250
:1011400071D128784B4C800705D5E068F0218843A1
:10115000A9680843E0602878C00752D06868022870
:1011600017D0032818D02168012818D08905002934
:1011700059DAE168890889000143E160FFF722FC40
:1011800069680746022912D003291CD0012926D0FC
:1011900033E021688903EAE721688901E7E7490725
:1011A000E5E7FFF70FFCC11B3348814223D8E06815
:1011B0000007800F0228F4D123E0FFF703FCC11BD6
:1011C0002D48814217D8E0680007800F0328F4D12A
:1011D00017E0FFF7F7FBC11B274881420BD8E068F7
:1011E0000007800F0128F4D10BE0FFF7EBFBC11BD8
:1011F0002148814201D90320F8BDE0680007800F33
:10120000F3D11B480168C907C90FB1420DD9016864
:101210004908490031430160006800E003E0C0076D
:10122000C00FB04201D00120F8BD2878400706D594
:10123000E068072109028843E9680843E0602878EC
:10124000000707D5E0680721C90288432969C9005A
:101250000843E06000F036F8E168084A0906090F23
:10126000515CC840064908600020FFF771FEF8BDD8
:10127000002002400010024088130000622B00088A
:10128000F0130020044805490068C968044A49056C
:10129000490F515CC8407047F01300200010024015
:1012A0007B2B0008044805490068C968044A890482
:1012B000490F515CC8407047F013002000100240F5
:1012C0007B2B000810B5184AD1680C200840042870
:1012D0000BD0082810D00C2810D050680004410F03
:1012E0000120C003491C884010BD1068C00601D50C
:1012F0000E4810BD0E4810BD0E4810BD88020E4BA2
:10130000000F185C0902D368890F491CDB0301D563
:10131000084A05E01268D20601D5044A00E0044AF2
:101320005043FEF7E5FE10BD0010024000093D00ED
:101330000024F40000127A00722B0008FEB50500AC
:101340007ED0FE4CE7680C20E668074001200004D0
:1013500006402878C00747D0082F05D00C2F0AD1A7
:1013600001200004864206D1206880033CD56868CD
:101370000028E5D038E0012069680004814203D1EB
:1013800021680143216011E0052301221B0492041E
:101390009942216802D111432160F1E78143216024
:1013A000216801400091206890432060686800280F
:1013B0000DD0FFF707FB009005E0FFF703FB009956
:1013C000401A64287AD820688003F6D50CE0FFF72D
:1013D000F9FA009005E0FFF7F5FA0099401A642841
:1013E000F0D820688003F6D42878800755D50923E3
:1013F000E868042F0DD00C2F01D1002E09D0002851
:101400003BD02168994301432160FFF7DBFA064690
:1014100027E02168490701D5002891D061681F2283
:10142000120291432A6912021143616021689943B3
:1014300001432160FFF746FFE16809060A0F00E05B
:1014400079E1BF49895CC840BE4908600020FFF7C8
:101450007FFD002872D120E0FFF7B4FA801B02283C
:10146000B0D820684007F7D560681F21090288437B
:1014700029690902084360600FE0206840084000C5
:101480002060FFF79FFA064604E0FFF79BFA801BF7
:10149000022897D820684007F7D42878C0065FD57F
:1014A000002F0CD0A869002849D02068FF21013105
:1014B00008432060FFF786FA06462DE0C0E020686A
:1014C000800502D5A8690028A7D0606807214903D4
:1014D0008843296A084360606068297F0002000A27
:1014E000090608436060286A410B0120C003491CBB
:1014F0008840E16809060A0F9149895CC840914912
:1015000008600020FFF724FD002817D128E0FFF72E
:1015100059FA801B0228A3D820688005F7D5606897
:10152000072149038843296A084360606068297F6E
:101530000002000A09060843606011E0E1E021684A
:10154000FF20013081432160FFF73CFA064604E0AA
:10155000FFF738FA801B022872D820688005F7D47C
:101560002878794E000724D568690028306910D0A2
:10157000012108433061FFF725FA009005E0FFF7ED
:1015800021FA0099401A02285AD830698007F6D506
:101590000FE0400840003061FFF714FA009005E0CA
:1015A000FFF710FA0099401A022849D830698007DD
:1015B000F6D42878400765D500200290A06BC000C3
:1015C00006D4A06B012109070843A0630120029003
:1015D0005E480168C90511D4016882151143016094
:1015E000FFF7F0F9009005E0FFF7ECF90099401AD9
:1015F000642825D855480068C005F5D5FF20AA689D
:101600000130824203D131690143316111E001218E
:101610008902002A07D005231B029A4203D13269AE
:101620000A433261EFE732698243326130698843AD
:101630003061A86800280FD0FFF7C4F9009007E0D8
:101640005EE0FFF7BFF90099411A4148814257D83F
:1016500030698005F5D50DE0FFF7B4F9009006E09C
:10166000FFF7B0F90099411A3948814248D83069EA
:101670008005F5D40298002804D0A06B0121090749
:101680008843A063686A002864D00C2F3ED00126EE
:1016900036060228206805D0B0432060FFF792F993
:1016A00005462FE0B0432060FFF78CF9074604E0C1
:1016B000FFF788F9C01B022822D820688001F7D4E0
:1016C000E96AA86AE2680843296BFD231B049A4370
:1016D00011430843E060206830432060FFF772F94F
:1016E000054604E0FFF76EF9401B022808D8206881
:1016F0008001F7D52EE0FFF765F9401B022801D9DC
:101700000320FEBD20688001F5D423E00128F8D035
:10171000E06801210904AA6A014091420BD10F211E
:101720008904EA6A0140914205D1032189050840F4
:10173000296B88420ED00120FEBD0000001002403F
:10174000622B0008F013002040100240007000409F
:10175000881300000020EFE7094910B5401E8842B9
:1017600001D9012010BD074C60610321081F00F062
:101770004DFC0020A06107202061002010BD00006A
:10178000FFFFFF0000E000E010B5040003D0606F31
:10179000002802D007E0012010BD00217020015573
:1017A000204600F027F82420606720680168490877
:1017B00049000160204601F013F80128ECD0606A6E
:1017C000002802D0204600F075FF206841680922F9
:1017D000D20291434160206881682A22914381604E
:1017E00020680168012211430160204600F0C8FF13
:1017F00010BD000010B586B0044614216846FEF7FF
:10180000C4FC1149206888421CD11048416B012258
:10181000920311434163C16A01221143C162C06A4C
:10182000694610400590032040020090022001907C
:10183000002002900320039004200490052000075C
:10184000FEF7F8FF06B010BD00380140001002405E
:10185000FFB50446406F83B017460D4620285CD183
:10186000002D0AD0002F08D0A168C001814207D105
:101870002069002804D1E80702D0012007B0F0BD9C
:10188000204660300290007C012846D00298012159
:1018900001740020E06721206067FFF793F8264677
:1018A00040360190378277820120A168000381428F
:1018B00002D12069002802D02F46002511E0002720
:1018C0000FE000228021204601F09EF8002815D16B
:1018D000002F15D02168387888627F1C708A401EDE
:1018E0007082708A019B002806980090E9D100223E
:1018F0004021204601F088F8002808D00320BDE7E9
:1019000028882168C005C00D8862AD1CE6E720204C
:101910006067029900200874B0E70220AEE7FEE796
:1019200001688A69D243920701D400228A62006862
:101930008169C943C90703D08169012211438161CB
:1019400070470000F7B5044600680E468069C04342
:10195000C0062BD420272546403520688069C04327
:10196000800612D5701CF8D0FFF72CF80299401AA7
:10197000B04201D8002EF0D1606C384360646F70C3
:101980000020A87028700120FEBD21681020C861C9
:101990002068C7612046FFF7C3FF20684168044AFA
:1019A00011404160606C04210843E7E70020FEBD60
:1019B00000E800FEF8B50446164615481D46DAB2A2
:1019C0000090079F0023204600F054F83A46204636
:1019D000069900F0B0F8002818D12846F5B2012881
:1019E00009D02168300A88623A462046069900F0FC
:1019F000A2F800280AD120688562009700224021C1
:101A00002046069B00F04AF8002800D00120F8BDCF
:101A100000200080F8B50446164615481D46DAB287
:101A2000C3020090079F204600F024F83A46204663
:101A3000069900F080F8002818D12846F5B2012850
:101A400009D02168300A88623A462046069900F09B
:101A500072F800280AD12068856200970022802150
:101A60002046069B00F01AF8002800D00120F8BD9F
:101A700000200080F0B50668059C7568064F600D73
:101A8000384385438805800D1104084318432043DB
:101A900005437560F0BD0000FF63FF03F8B51D4608
:101AA00017460E46044609E0681C07D0FEF78AFF79
:101AB0000699401AA8420BD8002D09D020688169E8
:101AC000304688430FD00020B842EDD00020F8BD4A
:101AD000616C202001436164403460700020A0707C
:101AE00020700120F8BD0120EEE770B516460D46C6
:101AF00004460FE0324629462046FFF723FF002820
:101B000001D0012070BDFEF75DFF801BA84208D800
:101B1000002D06D020688069C0438006EAD40020EA
:101B200070BD616C2020014361644034607000200E
:101B3000A0702070E5E770B516460D46044611E02A
:101B4000324629462046FFF7FDFE002801D001203D
:101B500070BD681C06D0FEF735FF801BA84208D870
:101B6000002D06D020688069C0438007E8D400209B
:101B700070BD616C202001436164403460700020BE
:101B8000A0702070E3E70000F0B587B0142168462C
:101B9000FEF7FBFA3548C26A04210A43C262C26AF0
:101BA0000A400592C16A01263143C162C16A3140CF
:101BB0000591C26A02210A43C262C06A0527084031
:101BC0003F0705900022F4213846FEF7F4FE00227C
:101BD00003212748FEF7EFFE03208003032400259E
:101BE0006A4631C269462348FEF724FE22486A4607
:101BF00031C269463846FEF71DFEF420009002957A
:101C00006946019603953846FEF714FE0122042129
:101C10003846FEF7D0FE082000901848019069462B
:101C200002953846FEF706FE029569461048019671
:101C300003950094FEF7FEFD300200900195694681
:101C400002953846FEF7F6FD38206A4631C26946ED
:101C50000748FEF7EFFD002211460620FFF7A6F920
:101C60000620FFF799F907B0F0BD00000010024010
:101C700000040050000800500398000000001110FC
:101C800070B50446114820600025A5602561656196
:101C9000A561E561012125620D48E1606060204693
:101CA000FEF7FEFE002800D0012500212046FEF7A9
:101CB0008FFE002800D0012500212046FEF7ADFE52
:101CC000002800D00125284670BD000000540040C7
:101CD0001A06100070B5002000F00EF90028FAD1A5
:101CE000254900F049F9244D0026AD1EA8782C4660
:101CF0001434002805D1314626600A46666000F09B
:101D000033F90021084600F06FF9002000F05CF97B
:101D100019490020491E00F047F96878002816D1BB
:101D2000154900F029F9A878002805D13146266028
:101D30000A46666000F018F90121002000F05CF905
:101D40007B2121600A460020616000F00DF900202F
:101D500000F042F909A000F0ADFE00F093F8314622
:101D600026600A460020666000F0FEF8B0210020E0
:101D700000F0B4F870BD0000A61300200A0D0A0D93
:101D80004D61696C626F7820697320616374697654
:101D9000617465640000000070B5244C207801284F
:101DA00042D121460C31002000F0EEF820460C30E4
:101DB000807805263607002501282FD1211D002017
:101DC00000F0EAF8A088401C80B2A080032802D06E
:101DD000C82802D016E0A56020E001220421304688
:101DE000FEF7E9FD1248A16800224118C8231046F9
:101DF00000F0E2F8A0680022C830A060042130465C
:101E0000FEF7D9FD0B49A068884207D10121084897
:101E1000A560FEF7EBFA0848FEF76BFC2570002280
:101E200004213046FEF7C7FD70BD0000A41300205A
:101E30000000002088130000B80B000010B5FFF769
:101E400049FF10BD10B5FFF7A7FF10BD10B50C4836
:101E50000A490160E1214902416000218160C160BD
:101E600001618161C1610C22016242614162FFF73F
:101E70008BFC002801D0FEF73BFC10BD0038014070
:101E8000F813002000B585B0082000900F4801909D
:101E90000220039000200290052069460007FEF70B
:101EA000C9FC0B490B48FEF732FC0B4A00210948DC
:101EB000FEF746FC002211460620FFF777F80620C1
:101EC000FFF76AF8002005B000BD00000000111007
:101ED00003000006E01300206902000804480068BF
:101EE0000269002A01D0034810470020C043704710
:101EF000E8130020C414002070B586B0114800908B
:101F00001148019011480290114804901148039023
:101F1000114805906946114800F0DAF90026F643A9
:101F2000002802D0304606B070BD0E4C0C48206030
:101F300001680025002903D0084888470028F2D00E
:101F40002560EFE7BD02000875020008490300089C
:101F500069030008A5030008C5090008C41400208F
:101F6000C4130020E813002010B5024800F019F94E
:101F700010BD0000C414002010B5024800F040F964
:101F800010BD0000C414002010B5024800F04DF947
:101F900010BD0000C414002010B5024800F064F920
:101FA00010BD0000C414002010B5024800F061F913
:101FB00010BD0000C414002010B5024800F06AF9FA
:101FC00010BD0000C414002010B5024800F0A2F9B2
:101FD00010BD0000C414002010B5024800F0F3F951
:101FE00010BD0000C414002010B5024800F073FAC0
:101FF00010BD0000C414002010B5024800F073FAB0
:1020000010BD0000C4140020704700008307FF22A9
:10201000DB0E9A408907090E994000280BDA000769
:10202000000F0838830808489B001818C3699343B9
:102030000B43C3617047830804489B001B18186852
:10204000904308431860704700ED00E000E400E0B2
:102050007047F8B5FF260527002401363F07FF2506
:10206000913531463846FEF7A1FC002807D00A20FA
:10207000FEF73FFB641CAC42F3D30020F8BD012007
:10208000F8BD30B404698D0401D5A62000E0AE206F
:10209000A44630BC604713B501A9183000F088F998
:1020A0001CBD38B50C466946183000F007F800280A
:1020B00003D1684600782080002038BD10B50A465C
:1020C0000123002100F0FCF8002801D00020C043CB
:1020D00010BD000010B50C460A460123064900F069
:1020E000EFF8002802D00020C04310BD2078C007C0
:1020F000C00F2070002010BD0420000010B50A465B
:102100000123172100F0DCF8002801D00020C04393
:1021100010BD000010B50A460123044900F0D0F8B4
:10212000002801D00020C04310BD0000072000009F
:1021300010B50A460123044900F0C2F8002801D076
:102140000020C04310BD00000620000010B50C4662
:102150000A4601230D2100F0B3F8002802D0002028
:10216000C04310BD2078C007C00F2070002010BDF4
:1021700038B50446406A00280CD16946204600F074
:102180004FF868460078242804D0262802D0002082
:10219000C04338BD01206062002038BD8268A6209F
:1021A0001047F7B586B00C46164614216846FDF771
:1021B000ECFF09206946087200206A4603273B1A93
:1021C0002146DB00D9403546DD40115413181D71FE
:1021D000401C5972C0B25D730428F0D30922112348
:1021E00012026946069800F08DF909B0F0BD30B4CE
:1021F000046915460A462946A44630BCA620604715
:1022000038B50C4669461830FFF764FF002806D140
:1022100068460078002800D001202070002038BDDA
:1022200010B51830FFF76AFF10BD38B50C46694687
:102230001830FFF77DFF002815D168460078C007E9
:10224000C00F2070684600788107C90F6170410790
:10225000C90FA170C106C90FE1708106C90F2171B4
:1022600080096071002038BD10B51830FFF752FFAB
:1022700010BD38B50C4669461830FFF767FF0028D7
:1022800006D168460078002800D001202070002088
:1022900038BD000030B40D46FF2101318A4203D918
:1022A000002030BCC04370470449046951182A46D5
:1022B000A44630BC89B2A620604700000820000078
:1022C00030B4044664688068A44630BC60470000AF
:1022D00070B50024651E002815D00A6802604B689E
:1022E0004360CB68C3600B6903618B688360496995
:1022F00041610649C161064981610062002A02D03C
:102300009047002800D02C46204670BD832000084E
:102310006B2A000808B501216A4611706946183019
:1023200000F002F808BD0000F8B5104E0C46074654
:1023300001236A463146FFF7C3FF0025ED4300281D
:1023400011D1694620780978C0074908C00F4900B3
:1023500008436946087001236A463146384600F052
:10236000CAF8002800D02846F8BD0000022000006E
:10237000F8B50C46064601236A460221FFF7A0FF86
:102380000025ED43002811D1694620780978C0075F
:102390004908C00F490008436946087001236A468E
:1023A0000221304600F0A7F8002800D02846F8BDEA
:1023B00010B50A460123002100F09DF8002801D045
:1023C0000020C04310BD08B501216A46117069465E
:1023D000183000F001F808BDF8B5104E0C4607465D
:1023E00001236A463146FFF76BFF0025ED430028C5
:1023F00011D1694620780978C0074908C00F490003
:1024000008436946087001236A463146384600F0A1
:1024100072F8002800D02846F8BD00000620000011
:10242000F8B50C46064601236A460D21FFF748FF22
:102430000025ED43002811D1694620780978C007AE
:102440004908C00F490008436946087001236A46DD
:102450000D21304600F04FF8002800D02846F8BD86
:10246000F0B585B006461D4600920191FF24013467
:10247000A54200D82C46F7682346A620019A009969
:10248000B847070017D17069804703900121B268EF
:10249000A62090470290706980470399411AFF2057
:1024A00041308142029802D20028EFD103E0002897
:1024B00001D00227FF4301980019019000980019EC
:1024C00080B20090281B05042D0C01D0002FCDD028
:1024D000384605B0F0BD08B56A4611706946183037
:1024E000FFF746FF08BD08B56A4611706946183007
:1024F000FFF796FF08BD30B4044624688068A44600
:1025000030BC6047F0B585B01C460646019200918C
:10251000FF200130844201D9002500E0E5B2F768D0
:102520002B46AE20009A0199B847070017D1706971
:10253000804703900121B268A620904702907069FD
:1025400080470399411AFF2041308142029802D20C
:102550000028EFD103E0002801D00227FF430098B4
:10256000401900900198401980B20190601B04044A
:10257000240C01D0002FCBD0384605B0F0BD7047F9
:1025800006E00021491C0906090EFBD0401EC0B21E
:102590000028F6D1704770B505460120FFF7F0FF1F
:1025A000002405263607002240213046FEF703FAB4
:1025B0000120FFF7E5FF280601D5012200E00022F7
:1025C00020213046FEF7F7F96806050E0120FFF7D7
:1025D000D7FF012240213046FEF7EDF90120FFF739
:1025E000CFFF641CE4B2082CDDD370BD10B5FEF73C
:1025F00093FC10BD30B599B034216846FDF7C5FD98
:1026000014210DA8FDF7C1FD1C2112A8FDF7BDFD89
:10261000124801680322D2029143C2148918016052
:1026200002200090002410200994012504900395B5
:102630006846FEF783FE0F200D900F941094002142
:102640000E9511940DA8FEF767FD092017941290BE
:10265000149412A8FEF7AEFC19B030BD0070004013
:1026600010480168821511430160C1680E4A11408B
:10267000C16001680D4A1140016081684908490044
:10268000816001680122920491430160C168FD22CA
:1026900012049143C160002101610549C0038860B3
:1026A00070470000001002400C40FF88F6FFF6FE65
:1026B00000ED00E010B5818CC90707D001684A68B9
:1026C00001235B049A43836A1A434A60818C890719
:1026D00007D501684A6801231B049A43C36A1A4359
:1026E0004A60818C490707D501684A6801239B0429
:1026F0009A43036B1A434A60818C090707D5016826
:102700004A680123DB039A43436B1A434A60818C76
:10271000C90607D50268916801231B039943836B9F
:1027200019439160818C890607D501688A68012365
:102730005B039A43C36B1A438A60818C490612D5A6
:1027400003685A6801210905046C8A4322435A60D0
:10275000026C8A4207D10268516803235B059943E2
:10276000436C19435160818C090607D501684A689A
:102770000123DB04806C9A4302434A6010BD0000D1
:10278000F8B500260446C667FEF71CF90546206822
:102790000068124F000709D501212B460022490588
:1027A0002046009700F030F900280DD1206800681D
:1027B00040070BD501212B460022890520460097B2
:1027C00000F022F9002801D00320F8BD2020606726
:1027D000A067603426740020F8BD0000FFFFFF01F1
:1027E000F8B504462669A268E76932436669102095
:1027F00000253E432368324378491E68784F3E40A7
:1028000016431E6023685A6803263603B243E668FF
:1028100032435A602368A2698B4201D0266A324350
:102820009E680B273F02BE4316439E606D4E236891
:102830006D4AB3420CD1D2689207920F06D0012A9A
:1028400038D0022A34D0032A20D11EE001201DE016
:10285000664EB3420AD1D2680C26324026D0042AF2
:1028600028D0082A24D00C2A10D10EE08B420DD19A
:10287000D66803229202164018D001229202B61A9C
:1028800018D0B61A14D0964200D10820564A012614
:10289000403A574FF6038B4236D100280CD002281D
:1028A0000DD0042812D008281FD11CE00020EDE72D
:1028B0000220EBE70420E9E7FEF7E4FC08E01068FB
:1028C000C00601D5384605E04A4803E0FEF7FAFCA9
:1028D000002873D0626851005118814205D8110355
:1028E000814202D303E03046F4E7012566E0010EA1
:1028F00006025008002330185941FDF70FFC032150
:102900000902411A3C4A55E0E169B14232D1030063
:1029100000F0DAF809070A0D06250606062B060060
:10292000E3E7FEF7AFFC1CE0FEF7BCFC19E0106823
:102930006168C00602D54808304A01E0304A4808BC
:102940008018FDF7D5FB80B201462E4A103991421E
:10295000CBD8511C01400007400F08432CE0FEF784
:10296000B1FC616840004A08EAE761680122480852
:102970001204E5E7030000F0A7F809070A0D062690
:102980000606062C0600B0E7FEF77CFC1DE0FEF70D
:1029900089FC1AE010686168C00602D54808C019B1
:1029A00002E014484A081018FDF7A2FB80B2014665
:1029B000144A1039914298D82168C86000202066D6
:1029C00060662846F8BDFEF77DFC61684A088018FD
:1029D000EAE7616848088019E6E70000004800401F
:1029E000F369FFEF0038014040100240004400400E
:1029F00000093D000024F400FFFC0F0000127A00E3
:102A00000048E801EFFF0000FFB581B017460E4611
:102A100004460A9D09E0681C07D0FDF7D3FF04991E
:102A2000401AA8420CD8002D0AD02068C16930464F
:102A3000884318D00020B842EDD0002005B0F0BD8A
:102A400020680168FF22A1329143016020688168FB
:102A500049084900816020206067A0670020603439
:102A600020740320EAE70120E5E7F8B5C5680446CD
:102A70008E0402D5A620A847F8BDAE20A8470500C1
:102A800015D16069804707460121A268AE209047B2
:102A9000064660698047C11BFF204130814202D257
:102AA000002EF1D103E0002E01D00225ED4328468F
:102AB000F8BD000010B5024A024900F021F810BD2F
:102AC000212B0008F413002030B47446641E2578CE
:102AD000641CAB4200D21D46635D5B00E31830BC52
:102AE000184702E008C8121F08C1002AFAD170472F
:102AF0007047002001E001C1121F002AFBD170477E
:102B0000F8B516460F460446002503E03946B0479F
:102B1000641C6D1C20780028F8D12846F8BD000000
:102B200013B57D23DB00012269460248FEF790FEC3
:102B300000981CBDF8130020FEF7F6F9FFF75AFDC8
:102B4000FFF722F80520012204210007FDF733FFDB
:102B5000FFF77CF9FFF772F9FDF77EFCFFF772F9DA
:102B6000FCE700000000000000000102030406076B
:102B70000809030406080C101820300000000001AA
:102B800002030400A42B000800000020F81300003A
:102B90000802000834310008F8130020F80400008F
:102BA000F22A000802FFFF0101FF0101FF0101FFFE
:102BB00001014C010315FD7F191005F83FFFEE07D9
:102BC000F2EA19F009F01FD511155FFFC0391004A2
:102BD000C0880001E0040B801F32E00AC7C04044F7
:102BE000444405C45F32E00A82802AAAAAAA000EE1
:102BF0000719330FDF9CD31FD719E00BFE0B8BAAED
:102C0000AABAABBB8AA11910055F9FFFD592E3CF8B
:102C1000F519D00A3EAEEE0002EEEEEEF8F904072A
:102C200011FC7FFFFD555102F00CF82AAAB80A8862
:102C30003AAAAAA83F32000511F577757F3210072E
:102C4000EEEEE2AAAA2A65D1321008F9FFFFF55587
:102C5000555563D514B00DF8A8AAA2AAAA08AAAA25
:102C60003A80BF7D1005F1FDFFD532C0067FFF5FC2
:102C700054556413E2EA32B008222EEE8A0A0003A9
:102C80006422C163B008555FFFD55F5013C8B00D13
:102C900002A88AAAAA888AAAA80BAA83C8220764BB
:102CA000125D60B404D7FFF72CC00D22EEEAAAAA89
:102CB0008AAAEEEE88BEE3975196B805FFDC1FC7DF
:102CC0000D1407E3A80AAAAA82C5B38E836410056F
:102CD000FFF5F55796D00657FFFFDFF13212E29667
:102CE000C008AA22EEEE8FF08FFB22D76415C0C871
:102CF000049FF39F26D00CAB8A8AAA80B8AAAB8F18
:102D0000C382C8A40B55755757FDFFFF1FC700C5E9
:102D10002408E02EEE22AAAAAE9098048EA00B8979
:102D20003404C1FFFF2B113298041FFD01BB1009B1
:102D300083AAABA8000002AA64AB83BEC11A47A64F
:102D400031C78806FFC7C5FFF4C11BFE0E53100430
:102D5000EAAAFE068C06E3E07EFE0F5003813D806A
:102D600005F1FC1FFFCA1404F83BBA27A80BABBB44
:102D7000BBBBAAB8FE0BBB8F89896283C7FF401615
:102D8000F08931018007EAAEE87FE0EE6453F1D5C7
:102D9000E99006D55FFC7FFC323C04E0A8BA1F0333
:102DA0008008BB8AABAE3FF8BAC853F555658807B3
:102DB0005577FE3FF9FFA736E22711C69806AAAA63
:102DC000EE3FF1C072F132800655FF1FF1FFA420E3
:102DD00005E0AABBBAC721CE0005100FE3BE3F64D1
:102DE00090085755FF5FE7FE573281640006130FC6
:102DF000E6EE002A647006CFFF400015FA32BB01F0
:102E000011CE000910BB8F8BBBE800000F961E5F30
:102E100024045744449366F82C6009AAAAEF8F8EC5
:102E2000EEEF80326EFD47031405D555FF9F2A57FC
:102E300011112F43FC2B6412BBCD70058F3BBBBB24
:102E40003271EC1C05F55FFF5F530462C46477FFC9
:102E50003E902004EF8E3E6465489931121F5F62F8
:102E600091644007FF3BBBBFBB99CB230F8B6481B1
:102E7000326EFD7E031E5F520363C4447524088EC8
:102E8000EEF8EEE3EEE02FA0050FE0FEFF3228049F
:102E9000F07FF7C2110B13F01F64613210048BBB7B
:102EA000A0BF12C0CE9005BE3FF80B6412CF322CEB
:102EB00004FFFFC51E05C0043FFF456430042EFF1C
:102EC000EF647C063FFF80BF803D033AC78D4EF123
:102ED000EC046005D01F111064440583BBB8FB935C
:102EE0007C08B83FFFF8038000DB05B9C77C0415F8
:102EF0004445E7031FEEEF75051EFE21031EE8E9BA
:102F000005738000328EF17B0619997804F4111153
:102F1000D6559011642DEA059F00014605691825D4
:102F2000EE7FF041780521631FEEFF85032EFA1333
:102F3000050F11FA035303CE410E06423B6511CD36
:102F4000CEA0AC058D8503BEF4AC0522FE041005B1
:102F5000FEFEFF87CDDE03400649EE1DC806BE819A
:102F60000E06D00AFBBAAABFFBBFEA83BB651EFCF4
:102F700087033A57BBD165240AF8EFE2220022A06A
:102F800002A332AD0C073EFD3F062D42061DB304E1
:102F9000B2116433A08801128F65021180322E5461
:102FA000B9049EE415051C05F8FEFA227406900883
:102FB000A02222FEEFEEC09762F9641A31ECC391B1
:102FC0001F647C0A0000800888380BFBBE1D03517B
:102FD000C83196AC077F057FFC444F0807A00CE280
:102FE00022A22222AA2A3F802AF8325004F8FFC7E0
:102FF000329005F0015111E23005F8FBC608C91FF7
:103000003FFE3B08952D1D0A0541C8A4067FFFF42D
:1030100000055E1409FEC62A2A2AAA2AA897BFA27A
:103020002F9E0723C715FAFE51C908373B8F2CEE98
:1030300081FB081D6E054FC555A506ADE0081C06B1
:10304000EFFFFC2F8FD007000410A2AAA7324F9FDA
:10305000F16D07BDF9081007BBFFFC0F8FF8C9F32E
:103060008A3F324004475FFCC7C1640C0A10EFFE80
:10307000020FFE02AA2AA079091DA104F2C1C71DF0
:103080007E030C0910FE001FFFE0000803AB09DC03
:1030900007441FFFFC04445E091C05FEEFFFFF3DD3
:1030A00004000511FE80003F641D5604EFFD50C171
:1030B000092C05BBBBFF806F040E11F80F0A0E131D
:1030C000C4280A0F11EEEF080A6D0F0A0113160C3F
:1030D0000516BBBFFFE08C0A0213F1160006FFEFD6
:1030E000EFFFFBFF0101FF0101FF0101FF0101886B
:1030F00001101611013C01188022B14E0044001845
:103100004FC70001C700004504012201100A7121C8
:103110000008212200089D081006A320000897043B
:1031200012EF0C1F6124DC05C0040000062E3220C3
:043130005500000046
:04000005080000C12E
:00000001FF
